{
  "_format": "hh-sol-artifact-1",
  "contractName": "Profile",
  "sourceName": "contracts/Profile.sol",
  "abi": [
    {
      "inputs": [
        {
          "internalType": "address",
          "name": "",
          "type": "address"
        },
        {
          "internalType": "uint256",
          "name": "",
          "type": "uint256"
        }
      ],
      "name": "address_name_imgHash_bio",
      "outputs": [
        {
          "internalType": "string",
          "name": "",
          "type": "string"
        }
      ],
      "stateMutability": "view",
      "type": "function"
    },
    {
      "inputs": [
        {
          "internalType": "uint256",
          "name": "index",
          "type": "uint256"
        }
      ],
      "name": "getter",
      "outputs": [
        {
          "internalType": "string",
          "name": "",
          "type": "string"
        }
      ],
      "stateMutability": "view",
      "type": "function"
    },
    {
      "inputs": [
        {
          "internalType": "address",
          "name": "add",
          "type": "address"
        },
        {
          "internalType": "uint256",
          "name": "index",
          "type": "uint256"
        }
      ],
      "name": "getter_Address",
      "outputs": [
        {
          "internalType": "string",
          "name": "",
          "type": "string"
        }
      ],
      "stateMutability": "view",
      "type": "function"
    },
    {
      "inputs": [
        {
          "internalType": "string",
          "name": "_bio",
          "type": "string"
        }
      ],
      "name": "updateBio",
      "outputs": [],
      "stateMutability": "nonpayable",
      "type": "function"
    },
    {
      "inputs": [
        {
          "internalType": "string",
          "name": "_imgHash",
          "type": "string"
        }
      ],
      "name": "updateImg",
      "outputs": [],
      "stateMutability": "nonpayable",
      "type": "function"
    },
    {
      "inputs": [
        {
          "internalType": "string",
          "name": "_name",
          "type": "string"
        }
      ],
      "name": "updateName",
      "outputs": [],
      "stateMutability": "nonpayable",
      "type": "function"
    }
  ],
  "bytecode": "0x608060405234801561001057600080fd5b50610b27806100206000396000f3fe608060405234801561001057600080fd5b50600436106100625760003560e01c806317b45506146100675780636e09685c1461009757806376487b38146100b357806384da92a7146100cf57806394cad55d146100eb578063f76b31b01461011b575b600080fd5b610081600480360381019061007c91906107bb565b61014b565b60405161008e91906108df565b60405180910390f35b6100b160048036038101906100ac91906107f7565b610255565b005b6100cd60048036038101906100c891906107f7565b6102e1565b005b6100e960048036038101906100e4919061083c565b61036d565b005b6101056004803603810190610100919061087d565b6103fd565b60405161011291906108df565b60405180910390f35b610135600480360381019061013091906107bb565b610506565b60405161014291906108df565b60405180910390f35b60606000808473ffffffffffffffffffffffffffffffffffffffff1673ffffffffffffffffffffffffffffffffffffffff16815260200190815260200160002082600381106101c3577f4e487b7100000000000000000000000000000000000000000000000000000000600052603260045260246000fd5b0180546101cf906109f1565b80601f01602080910402602001604051908101604052809291908181526020018280546101fb906109f1565b80156102485780601f1061021d57610100808354040283529160200191610248565b820191906000526020600020905b81548152906001019060200180831161022b57829003601f168201915b5050505050905092915050565b81816000803373ffffffffffffffffffffffffffffffffffffffff1673ffffffffffffffffffffffffffffffffffffffff1681526020019081526020016000206001600381106102ce577f4e487b7100000000000000000000000000000000000000000000000000000000600052603260045260246000fd5b0191906102dc9291906105b6565b505050565b81816000803373ffffffffffffffffffffffffffffffffffffffff1673ffffffffffffffffffffffffffffffffffffffff16815260200190815260200160002060026003811061035a577f4e487b7100000000000000000000000000000000000000000000000000000000600052603260045260246000fd5b0191906103689291906105b6565b505050565b806000803373ffffffffffffffffffffffffffffffffffffffff1673ffffffffffffffffffffffffffffffffffffffff1681526020019081526020016000206000600381106103e5577f4e487b7100000000000000000000000000000000000000000000000000000000600052603260045260246000fd5b0190805190602001906103f992919061063c565b5050565b60606000803373ffffffffffffffffffffffffffffffffffffffff1673ffffffffffffffffffffffffffffffffffffffff1681526020019081526020016000208260038110610475577f4e487b7100000000000000000000000000000000000000000000000000000000600052603260045260246000fd5b018054610481906109f1565b80601f01602080910402602001604051908101604052809291908181526020018280546104ad906109f1565b80156104fa5780601f106104cf576101008083540402835291602001916104fa565b820191906000526020600020905b8154815290600101906020018083116104dd57829003601f168201915b50505050509050919050565b6000602052816000526040600020816003811061052257600080fd5b01600091509150508054610535906109f1565b80601f0160208091040260200160405190810160405280929190818152602001828054610561906109f1565b80156105ae5780601f10610583576101008083540402835291602001916105ae565b820191906000526020600020905b81548152906001019060200180831161059157829003601f168201915b505050505081565b8280546105c2906109f1565b90600052602060002090601f0160209004810192826105e4576000855561062b565b82601f106105fd57803560ff191683800117855561062b565b8280016001018555821561062b579182015b8281111561062a57823582559160200191906001019061060f565b5b50905061063891906106c2565b5090565b828054610648906109f1565b90600052602060002090601f01602090048101928261066a57600085556106b1565b82601f1061068357805160ff19168380011785556106b1565b828001600101855582156106b1579182015b828111156106b0578251825591602001919060010190610695565b5b5090506106be91906106c2565b5090565b5b808211156106db5760008160009055506001016106c3565b5090565b60006106f26106ed84610926565b610901565b90508281526020810184848401111561070a57600080fd5b6107158482856109af565b509392505050565b60008135905061072c81610ac3565b92915050565b60008083601f84011261074457600080fd5b8235905067ffffffffffffffff81111561075d57600080fd5b60208301915083600182028301111561077557600080fd5b9250929050565b600082601f83011261078d57600080fd5b813561079d8482602086016106df565b91505092915050565b6000813590506107b581610ada565b92915050565b600080604083850312156107ce57600080fd5b60006107dc8582860161071d565b92505060206107ed858286016107a6565b9150509250929050565b6000806020838503121561080a57600080fd5b600083013567ffffffffffffffff81111561082457600080fd5b61083085828601610732565b92509250509250929050565b60006020828403121561084e57600080fd5b600082013567ffffffffffffffff81111561086857600080fd5b6108748482850161077c565b91505092915050565b60006020828403121561088f57600080fd5b600061089d848285016107a6565b91505092915050565b60006108b182610957565b6108bb8185610962565b93506108cb8185602086016109be565b6108d481610ab2565b840191505092915050565b600060208201905081810360008301526108f981846108a6565b905092915050565b600061090b61091c565b90506109178282610a23565b919050565b6000604051905090565b600067ffffffffffffffff82111561094157610940610a83565b5b61094a82610ab2565b9050602081019050919050565b600081519050919050565b600082825260208201905092915050565b600061097e82610985565b9050919050565b600073ffffffffffffffffffffffffffffffffffffffff82169050919050565b6000819050919050565b82818337600083830152505050565b60005b838110156109dc5780820151818401526020810190506109c1565b838111156109eb576000848401525b50505050565b60006002820490506001821680610a0957607f821691505b60208210811415610a1d57610a1c610a54565b5b50919050565b610a2c82610ab2565b810181811067ffffffffffffffff82111715610a4b57610a4a610a83565b5b80604052505050565b7f4e487b7100000000000000000000000000000000000000000000000000000000600052602260045260246000fd5b7f4e487b7100000000000000000000000000000000000000000000000000000000600052604160045260246000fd5b6000601f19601f8301169050919050565b610acc81610973565b8114610ad757600080fd5b50565b610ae3816109a5565b8114610aee57600080fd5b5056fea26469706673582212209305efb0217f44bdbd6462d7f7ca51f54bfd7f2635452f0c27e311f2b78f4c4b64736f6c63430008040033",
  "linkReferences": {},
  "deployedLinkReferences": {}
}