{
  "_format": "hh-sol-artifact-1",
  "contractName": "Post",
  "sourceName": "contracts/Post.sol",
  "abi": [
    {
      "inputs": [],
      "stateMutability": "nonpayable",
      "type": "constructor"
    },
    {
      "anonymous": false,
      "inputs": [
        {
          "indexed": true,
          "internalType": "uint256",
          "name": "id",
          "type": "uint256"
        },
        {
          "indexed": true,
          "internalType": "address",
          "name": "commentDeletor",
          "type": "address"
        },
        {
          "indexed": false,
          "internalType": "string",
          "name": "comment",
          "type": "string"
        },
        {
          "indexed": false,
          "internalType": "address",
          "name": "author",
          "type": "address"
        },
        {
          "indexed": false,
          "internalType": "string",
          "name": "img_hash",
          "type": "string"
        }
      ],
      "name": "commentDeleted",
      "type": "event"
    },
    {
      "anonymous": false,
      "inputs": [
        {
          "indexed": true,
          "internalType": "uint256",
          "name": "id",
          "type": "uint256"
        },
        {
          "indexed": true,
          "internalType": "address",
          "name": "commentPoster",
          "type": "address"
        },
        {
          "indexed": false,
          "internalType": "string",
          "name": "comment",
          "type": "string"
        },
        {
          "indexed": false,
          "internalType": "address",
          "name": "author",
          "type": "address"
        },
        {
          "indexed": false,
          "internalType": "string",
          "name": "img_hash",
          "type": "string"
        }
      ],
      "name": "commented",
      "type": "event"
    },
    {
      "anonymous": false,
      "inputs": [
        {
          "indexed": true,
          "internalType": "uint256",
          "name": "id",
          "type": "uint256"
        },
        {
          "indexed": false,
          "internalType": "string",
          "name": "description",
          "type": "string"
        },
        {
          "indexed": false,
          "internalType": "string",
          "name": "img_hash",
          "type": "string"
        },
        {
          "indexed": true,
          "internalType": "address",
          "name": "author",
          "type": "address"
        }
      ],
      "name": "postCreated",
      "type": "event"
    },
    {
      "anonymous": false,
      "inputs": [
        {
          "indexed": true,
          "internalType": "uint256",
          "name": "id",
          "type": "uint256"
        },
        {
          "indexed": false,
          "internalType": "string",
          "name": "description",
          "type": "string"
        },
        {
          "indexed": false,
          "internalType": "string",
          "name": "img_hash",
          "type": "string"
        },
        {
          "indexed": true,
          "internalType": "address",
          "name": "deleteor",
          "type": "address"
        }
      ],
      "name": "postDeleted",
      "type": "event"
    },
    {
      "anonymous": false,
      "inputs": [
        {
          "indexed": true,
          "internalType": "uint256",
          "name": "id",
          "type": "uint256"
        },
        {
          "indexed": true,
          "internalType": "address",
          "name": "likeCanceler",
          "type": "address"
        },
        {
          "indexed": false,
          "internalType": "address",
          "name": "author",
          "type": "address"
        },
        {
          "indexed": false,
          "internalType": "string",
          "name": "img_hash",
          "type": "string"
        }
      ],
      "name": "postLikeCancled",
      "type": "event"
    },
    {
      "anonymous": false,
      "inputs": [
        {
          "indexed": true,
          "internalType": "uint256",
          "name": "id",
          "type": "uint256"
        },
        {
          "indexed": true,
          "internalType": "address",
          "name": "liker",
          "type": "address"
        },
        {
          "indexed": false,
          "internalType": "address",
          "name": "author",
          "type": "address"
        },
        {
          "indexed": false,
          "internalType": "string",
          "name": "img_hash",
          "type": "string"
        }
      ],
      "name": "postLiked",
      "type": "event"
    },
    {
      "inputs": [
        {
          "internalType": "address",
          "name": "",
          "type": "address"
        },
        {
          "internalType": "uint256",
          "name": "",
          "type": "uint256"
        },
        {
          "internalType": "uint256",
          "name": "",
          "type": "uint256"
        }
      ],
      "name": "address_id_comments",
      "outputs": [
        {
          "internalType": "string",
          "name": "",
          "type": "string"
        }
      ],
      "stateMutability": "view",
      "type": "function"
    },
    {
      "inputs": [
        {
          "internalType": "address",
          "name": "",
          "type": "address"
        },
        {
          "internalType": "uint256",
          "name": "",
          "type": "uint256"
        }
      ],
      "name": "address_id_liked",
      "outputs": [
        {
          "internalType": "uint256",
          "name": "",
          "type": "uint256"
        }
      ],
      "stateMutability": "view",
      "type": "function"
    },
    {
      "inputs": [
        {
          "internalType": "uint256",
          "name": "_postId",
          "type": "uint256"
        }
      ],
      "name": "cancleLike",
      "outputs": [],
      "stateMutability": "nonpayable",
      "type": "function"
    },
    {
      "inputs": [
        {
          "internalType": "uint256",
          "name": "_postId",
          "type": "uint256"
        },
        {
          "internalType": "string",
          "name": "_comment",
          "type": "string"
        }
      ],
      "name": "commentPost",
      "outputs": [],
      "stateMutability": "nonpayable",
      "type": "function"
    },
    {
      "inputs": [
        {
          "internalType": "string",
          "name": "_description",
          "type": "string"
        },
        {
          "internalType": "string",
          "name": "_img_hash",
          "type": "string"
        }
      ],
      "name": "createPost",
      "outputs": [],
      "stateMutability": "nonpayable",
      "type": "function"
    },
    {
      "inputs": [
        {
          "internalType": "uint256",
          "name": "_postId",
          "type": "uint256"
        },
        {
          "internalType": "string",
          "name": "_comment",
          "type": "string"
        }
      ],
      "name": "deleteComment",
      "outputs": [],
      "stateMutability": "nonpayable",
      "type": "function"
    },
    {
      "inputs": [
        {
          "internalType": "uint256",
          "name": "_postId",
          "type": "uint256"
        }
      ],
      "name": "deletePost",
      "outputs": [],
      "stateMutability": "nonpayable",
      "type": "function"
    },
    {
      "inputs": [],
      "name": "getAllPosts",
      "outputs": [
        {
          "components": [
            {
              "internalType": "uint256",
              "name": "id",
              "type": "uint256"
            },
            {
              "internalType": "string",
              "name": "description",
              "type": "string"
            },
            {
              "internalType": "string",
              "name": "img_hash",
              "type": "string"
            },
            {
              "internalType": "address",
              "name": "author",
              "type": "address"
            },
            {
              "internalType": "uint256",
              "name": "likes",
              "type": "uint256"
            },
            {
              "internalType": "uint256",
              "name": "comments",
              "type": "uint256"
            }
          ],
          "internalType": "struct Post.Posts[]",
          "name": "",
          "type": "tuple[]"
        }
      ],
      "stateMutability": "view",
      "type": "function"
    },
    {
      "inputs": [
        {
          "internalType": "uint256",
          "name": "_postId",
          "type": "uint256"
        },
        {
          "internalType": "string",
          "name": "_comment",
          "type": "string"
        }
      ],
      "name": "getCommentPoster",
      "outputs": [
        {
          "internalType": "address",
          "name": "",
          "type": "address"
        }
      ],
      "stateMutability": "view",
      "type": "function"
    },
    {
      "inputs": [
        {
          "internalType": "uint256",
          "name": "_postId",
          "type": "uint256"
        }
      ],
      "name": "getCommentsPost",
      "outputs": [
        {
          "internalType": "string[]",
          "name": "",
          "type": "string[]"
        }
      ],
      "stateMutability": "view",
      "type": "function"
    },
    {
      "inputs": [
        {
          "internalType": "uint256",
          "name": "_postId",
          "type": "uint256"
        }
      ],
      "name": "idLikedAddresses",
      "outputs": [
        {
          "internalType": "address[]",
          "name": "",
          "type": "address[]"
        }
      ],
      "stateMutability": "view",
      "type": "function"
    },
    {
      "inputs": [
        {
          "internalType": "uint256",
          "name": "",
          "type": "uint256"
        }
      ],
      "name": "id_Post",
      "outputs": [
        {
          "internalType": "uint256",
          "name": "id",
          "type": "uint256"
        },
        {
          "internalType": "string",
          "name": "description",
          "type": "string"
        },
        {
          "internalType": "string",
          "name": "img_hash",
          "type": "string"
        },
        {
          "internalType": "address",
          "name": "author",
          "type": "address"
        },
        {
          "internalType": "uint256",
          "name": "likes",
          "type": "uint256"
        },
        {
          "internalType": "uint256",
          "name": "comments",
          "type": "uint256"
        }
      ],
      "stateMutability": "view",
      "type": "function"
    },
    {
      "inputs": [
        {
          "internalType": "uint256",
          "name": "",
          "type": "uint256"
        },
        {
          "internalType": "string",
          "name": "",
          "type": "string"
        }
      ],
      "name": "id_comment_poster",
      "outputs": [
        {
          "internalType": "address",
          "name": "",
          "type": "address"
        }
      ],
      "stateMutability": "view",
      "type": "function"
    },
    {
      "inputs": [
        {
          "internalType": "uint256",
          "name": "",
          "type": "uint256"
        },
        {
          "internalType": "uint256",
          "name": "",
          "type": "uint256"
        }
      ],
      "name": "id_comments",
      "outputs": [
        {
          "internalType": "string",
          "name": "",
          "type": "string"
        }
      ],
      "stateMutability": "view",
      "type": "function"
    },
    {
      "inputs": [
        {
          "internalType": "uint256",
          "name": "",
          "type": "uint256"
        },
        {
          "internalType": "uint256",
          "name": "",
          "type": "uint256"
        }
      ],
      "name": "id_likedAdd",
      "outputs": [
        {
          "internalType": "address",
          "name": "",
          "type": "address"
        }
      ],
      "stateMutability": "view",
      "type": "function"
    },
    {
      "inputs": [
        {
          "internalType": "uint256",
          "name": "_postId",
          "type": "uint256"
        }
      ],
      "name": "likePost",
      "outputs": [],
      "stateMutability": "nonpayable",
      "type": "function"
    },
    {
      "inputs": [],
      "name": "owner",
      "outputs": [
        {
          "internalType": "address",
          "name": "",
          "type": "address"
        }
      ],
      "stateMutability": "view",
      "type": "function"
    },
    {
      "inputs": [
        {
          "internalType": "uint256",
          "name": "_postId",
          "type": "uint256"
        },
        {
          "internalType": "bool",
          "name": "img_change",
          "type": "bool"
        },
        {
          "internalType": "bool",
          "name": "description_change",
          "type": "bool"
        },
        {
          "internalType": "string",
          "name": "_img_hash",
          "type": "string"
        },
        {
          "internalType": "string",
          "name": "_description",
          "type": "string"
        }
      ],
      "name": "updatePost",
      "outputs": [],
      "stateMutability": "nonpayable",
      "type": "function"
    }
  ],
  "bytecode": "0x608060405234801561001057600080fd5b50336000806101000a81548173ffffffffffffffffffffffffffffffffffffffff021916908373ffffffffffffffffffffffffffffffffffffffff160217905550613a9b806100606000396000f3fe608060405234801561001057600080fd5b50600436106101165760003560e01c806355d4f5fb116100a25780638da5cb5b116100715780638da5cb5b1461030657806394a8967614610324578063c201282814610354578063d008e06214610370578063d952d628146103a057610116565b806355d4f5fb1461025a5780636c9af60d1461028a578063725009d3146102ba5780637ad20347146102d657610116565b80632536906c116100e95780632536906c146101a457806330561100146101c0578063392338f5146101de57806340f2fab8146101fa578063555ed0291461022a57610116565b80630418e5ff1461011b578063065e7c9514610137578063094cd5ee146101535780631b1d506a1461016f575b600080fd5b61013560048036038101906101309190612a47565b6103d0565b005b610151600480360381019061014c9190612997565b610683565b005b61016d6004803603810190610168919061296e565b610897565b005b6101896004803603810190610184919061296e565b610af7565b60405161019b969594939291906133e6565b60405180910390f35b6101be60048036038101906101b9919061296e565b610c63565b005b6101c8611152565b6040516101d5919061317e565b60405180910390f35b6101f860048036038101906101f391906128f9565b611413565b005b610214600480360381019061020f919061286e565b611559565b60405161022191906133cb565b60405180910390f35b610244600480360381019061023f919061296e565b61157e565b604051610251919061313a565b60405180910390f35b610274600480360381019061026f91906128aa565b61161f565b6040516102819190613222565b60405180910390f35b6102a4600480360381019061029f9190612af3565b6116e5565b6040516102b19190613222565b60405180910390f35b6102d460048036038101906102cf919061296e565b61179e565b005b6102f060048036038101906102eb9190612a47565b611a5e565b6040516102fd91906130ef565b60405180910390f35b61030e611abb565b60405161031b91906130ef565b60405180910390f35b61033e60048036038101906103399190612a9f565b611adf565b60405161034b91906130ef565b60405180910390f35b61036e60048036038101906103699190612a47565b611b37565b005b61038a60048036038101906103859190612af3565b61230c565b60405161039791906130ef565b60405180910390f35b6103ba60048036038101906103b5919061296e565b61235a565b6040516103c7919061315c565b60405180910390f35b8260008111610414576040517f08c379a000000000000000000000000000000000000000000000000000000000815260040161040b906132eb565b60405180910390fd5b61041e6001612446565b811115610460576040517f08c379a0000000000000000000000000000000000000000000000000000000008152600401610457906132eb565b60405180910390fd5b600560008581526020019081526020016000208383909180600181540180825580915050600190039060005260206000200160009091929091929091929091925091906104ae9291906125c8565b50600660003373ffffffffffffffffffffffffffffffffffffffff1673ffffffffffffffffffffffffffffffffffffffff168152602001908152602001600020600085815260200190815260200160002083839091806001815401808255809150506001900390600052602060002001600090919290919290919290919250919061053a9291906125c8565b503360076000868152602001908152602001600020848460405161055f9291906130d6565b908152602001604051809103902060006101000a81548173ffffffffffffffffffffffffffffffffffffffff021916908373ffffffffffffffffffffffffffffffffffffffff16021790555060006002600086815260200190815260200160002090508060050160008154809291906105d790613730565b91905055503373ffffffffffffffffffffffffffffffffffffffff16857fa9f1f866a82c862edf10c25f11e1b1edd1d0ca68e248e01a9ecedb2c77489aa68686600260008b815260200190815260200160002060030160009054906101000a900473ffffffffffffffffffffffffffffffffffffffff16600260008c815260200190815260200160002060020160405161067494939291906131a0565b60405180910390a35050505050565b86600081116106c7576040517f08c379a00000000000000000000000000000000000000000000000000000000081526004016106be906132eb565b60405180910390fd5b6106d16001612446565b811115610713576040517f08c379a000000000000000000000000000000000000000000000000000000000815260040161070a906132eb565b60405180910390fd5b6000600260008a815260200190815260200160002090508060030160009054906101000a900473ffffffffffffffffffffffffffffffffffffffff1673ffffffffffffffffffffffffffffffffffffffff163373ffffffffffffffffffffffffffffffffffffffff16146107bc576040517f08c379a00000000000000000000000000000000000000000000000000000000081526004016107b3906132cb565b60405180910390fd5b600115158815151415610824576000868690501161080f576040517f08c379a0000000000000000000000000000000000000000000000000000000008152600401610806906132ab565b60405180910390fd5b85858260020191906108229291906125c8565b505b60011515871515141561088c5760008484905011610877576040517f08c379a000000000000000000000000000000000000000000000000000000000815260040161086e9061338b565b60405180910390fd5b838382600101919061088a9291906125c8565b505b505050505050505050565b80600081116108db576040517f08c379a00000000000000000000000000000000000000000000000000000000081526004016108d2906132eb565b60405180910390fd5b6108e56001612446565b811115610927576040517f08c379a000000000000000000000000000000000000000000000000000000000815260040161091e906132eb565b60405180910390fd5b60006002600084815260200190815260200160002090508060030160009054906101000a900473ffffffffffffffffffffffffffffffffffffffff1673ffffffffffffffffffffffffffffffffffffffff163373ffffffffffffffffffffffffffffffffffffffff1614806109e7575060008054906101000a900473ffffffffffffffffffffffffffffffffffffffff1673ffffffffffffffffffffffffffffffffffffffff163373ffffffffffffffffffffffffffffffffffffffff16145b610a26576040517f08c379a0000000000000000000000000000000000000000000000000000000008152600401610a1d9061332b565b60405180910390fd5b3373ffffffffffffffffffffffffffffffffffffffff16837f930ec164b87a28fcd25eb4824721e9b2fce908f394aa86d8c7c84529cb4bdc868360010184600201604051610a75929190613274565b60405180910390a360026000848152602001908152602001600020600080820160009055600182016000610aa9919061264e565b600282016000610ab9919061264e565b6003820160006101000a81549073ffffffffffffffffffffffffffffffffffffffff0219169055600482016000905560058201600090555050505050565b6002602052806000526040600020600091509050806000015490806001018054610b20906136cd565b80601f0160208091040260200160405190810160405280929190818152602001828054610b4c906136cd565b8015610b995780601f10610b6e57610100808354040283529160200191610b99565b820191906000526020600020905b815481529060010190602001808311610b7c57829003601f168201915b505050505090806002018054610bae906136cd565b80601f0160208091040260200160405190810160405280929190818152602001828054610bda906136cd565b8015610c275780601f10610bfc57610100808354040283529160200191610c27565b820191906000526020600020905b815481529060010190602001808311610c0a57829003601f168201915b5050505050908060030160009054906101000a900473ffffffffffffffffffffffffffffffffffffffff16908060040154908060050154905086565b8060008111610ca7576040517f08c379a0000000000000000000000000000000000000000000000000000000008152600401610c9e906132eb565b60405180910390fd5b610cb16001612446565b811115610cf3576040517f08c379a0000000000000000000000000000000000000000000000000000000008152600401610cea906132eb565b60405180910390fd5b610d826040518060400160405280600f81526020017f4c696b6564207374617475732d3e200000000000000000000000000000000000815250600460003373ffffffffffffffffffffffffffffffffffffffff1673ffffffffffffffffffffffffffffffffffffffff168152602001908152602001600020600085815260200190815260200160002054612454565b6002600460003373ffffffffffffffffffffffffffffffffffffffff1673ffffffffffffffffffffffffffffffffffffffff16815260200190815260200160002060008481526020019081526020016000205414610e15576040517f08c379a0000000000000000000000000000000000000000000000000000000008152600401610e0c9061336b565b60405180910390fd5b610e536040518060400160405280601181526020017f434f6e646974696f6e73207061737365640000000000000000000000000000008152506124f0565b6000600260008481526020019081526020016000209050806004016000815480929190610e7f906136a3565b9190505550610ec26040518060400160405280600e81526020017f6c696b65206465637265617365640000000000000000000000000000000000008152506124f0565b6001600460003373ffffffffffffffffffffffffffffffffffffffff1673ffffffffffffffffffffffffffffffffffffffff16815260200190815260200160002060008581526020019081526020016000208190555060005b6003600085815260200190815260200160002080549050811015611072573373ffffffffffffffffffffffffffffffffffffffff16600360008681526020019081526020016000208281548110610f9b577f4e487b7100000000000000000000000000000000000000000000000000000000600052603260045260246000fd5b9060005260206000200160009054906101000a900473ffffffffffffffffffffffffffffffffffffffff1673ffffffffffffffffffffffffffffffffffffffff16141561105f5760036000858152602001908152602001600020818154811061102d577f4e487b7100000000000000000000000000000000000000000000000000000000600052603260045260246000fd5b9060005260206000200160006101000a81549073ffffffffffffffffffffffffffffffffffffffff0219169055611072565b808061106a90613730565b915050610f1b565b506110b16040518060400160405280601281526020017f4c696b656420696e666f206368616e67656400000000000000000000000000008152506124f0565b3373ffffffffffffffffffffffffffffffffffffffff16837f5b20911473c953f1e16f72c84d5f7dc88f95915b5acc2963be4190818d27b5056002600087815260200190815260200160002060030160009054906101000a900473ffffffffffffffffffffffffffffffffffffffff166002600088815260200190815260200160002060020160405161114592919061310a565b60405180910390a3505050565b606060006111606001612446565b905060008167ffffffffffffffff8111156111a4577f4e487b7100000000000000000000000000000000000000000000000000000000600052604160045260246000fd5b6040519080825280602002602001820160405280156111dd57816020015b6111ca61268e565b8152602001906001900390816111c25790505b50905060005b8281101561140a576000600260006001846111fe91906135c3565b81526020019081526020016000209050806040518060c001604052908160008201548152602001600182018054611234906136cd565b80601f0160208091040260200160405190810160405280929190818152602001828054611260906136cd565b80156112ad5780601f10611282576101008083540402835291602001916112ad565b820191906000526020600020905b81548152906001019060200180831161129057829003601f168201915b505050505081526020016002820180546112c6906136cd565b80601f01602080910402602001604051908101604052809291908181526020018280546112f2906136cd565b801561133f5780601f106113145761010080835404028352916020019161133f565b820191906000526020600020905b81548152906001019060200180831161132257829003601f168201915b505050505081526020016003820160009054906101000a900473ffffffffffffffffffffffffffffffffffffffff1673ffffffffffffffffffffffffffffffffffffffff1673ffffffffffffffffffffffffffffffffffffffff168152602001600482015481526020016005820154815250508383815181106113eb577f4e487b7100000000000000000000000000000000000000000000000000000000600052603260045260246000fd5b602002602001018190525050808061140290613730565b9150506111e3565b50809250505090565b60008282905011611459576040517f08c379a0000000000000000000000000000000000000000000000000000000008152600401611450906133ab565b60405180910390fd5b6114636001612589565b600061146f6001612446565b9050600060026000838152602001908152602001600020905081816000018190555085858260010191906114a49291906125c8565b5083838260020191906114b89291906125c8565b50338160030160006101000a81548173ffffffffffffffffffffffffffffffffffffffff021916908373ffffffffffffffffffffffffffffffffffffffff1602179055503373ffffffffffffffffffffffffffffffffffffffff16827f13d593181e790631ff45efe25d50a6a868d2d6a2f28ef00f2c7dab21bf8c9dad8888888860405161154994939291906131e7565b60405180910390a3505050505050565b6004602052816000526040600020602052806000526040600020600091509150505481565b60606003600083815260200190815260200160002080548060200260200160405190810160405280929190818152602001828054801561161357602002820191906000526020600020905b8160009054906101000a900473ffffffffffffffffffffffffffffffffffffffff1673ffffffffffffffffffffffffffffffffffffffff16815260200190600101908083116115c9575b50505050509050919050565b6006602052826000526040600020602052816000526040600020818154811061164757600080fd5b9060005260206000200160009250925050508054611664906136cd565b80601f0160208091040260200160405190810160405280929190818152602001828054611690906136cd565b80156116dd5780601f106116b2576101008083540402835291602001916116dd565b820191906000526020600020905b8154815290600101906020018083116116c057829003601f168201915b505050505081565b6005602052816000526040600020818154811061170157600080fd5b9060005260206000200160009150915050805461171d906136cd565b80601f0160208091040260200160405190810160405280929190818152602001828054611749906136cd565b80156117965780601f1061176b57610100808354040283529160200191611796565b820191906000526020600020905b81548152906001019060200180831161177957829003601f168201915b505050505081565b80600081116117e2576040517f08c379a00000000000000000000000000000000000000000000000000000000081526004016117d9906132eb565b60405180910390fd5b6117ec6001612446565b81111561182e576040517f08c379a0000000000000000000000000000000000000000000000000000000008152600401611825906132eb565b60405180910390fd5b6002600460003373ffffffffffffffffffffffffffffffffffffffff1673ffffffffffffffffffffffffffffffffffffffff16815260200190815260200160002060008481526020019081526020016000205414156118c2576040517f08c379a00000000000000000000000000000000000000000000000000000000081526004016118b99061334b565b60405180910390fd5b60006002600084815260200190815260200160002090508060040160008154809291906118ee90613730565b91905055506002600460003373ffffffffffffffffffffffffffffffffffffffff1673ffffffffffffffffffffffffffffffffffffffff16815260200190815260200160002060008581526020019081526020016000208190555060036000848152602001908152602001600020339080600181540180825580915050600190039060005260206000200160009091909190916101000a81548173ffffffffffffffffffffffffffffffffffffffff021916908373ffffffffffffffffffffffffffffffffffffffff1602179055503373ffffffffffffffffffffffffffffffffffffffff16837f2011aa9130935dae91dfb873b547ac3e2bbe75b9a4896b200dd7225d2e8c60026002600087815260200190815260200160002060030160009054906101000a900473ffffffffffffffffffffffffffffffffffffffff1660026000888152602001908152602001600020600201604051611a5192919061310a565b60405180910390a3505050565b6000600760008581526020019081526020016000208383604051611a839291906130d6565b908152602001604051809103902060009054906101000a900473ffffffffffffffffffffffffffffffffffffffff1690509392505050565b60008054906101000a900473ffffffffffffffffffffffffffffffffffffffff1681565b6007602052816000526040600020818051602081018201805184825260208301602085012081835280955050505050506000915091509054906101000a900473ffffffffffffffffffffffffffffffffffffffff1681565b8260008111611b7b576040517f08c379a0000000000000000000000000000000000000000000000000000000008152600401611b72906132eb565b60405180910390fd5b611b856001612446565b811115611bc7576040517f08c379a0000000000000000000000000000000000000000000000000000000008152600401611bbe906132eb565b60405180910390fd5b6000600260008681526020019081526020016000209050600760008681526020019081526020016000208484604051611c019291906130d6565b908152602001604051809103902060009054906101000a900473ffffffffffffffffffffffffffffffffffffffff1673ffffffffffffffffffffffffffffffffffffffff163373ffffffffffffffffffffffffffffffffffffffff161415611ffb5760005b600660003373ffffffffffffffffffffffffffffffffffffffff1673ffffffffffffffffffffffffffffffffffffffff168152602001908152602001600020600087815260200190815260200160002080549050811015611e7a578484604051611cd19291906130a6565b6040518091039020600660003373ffffffffffffffffffffffffffffffffffffffff1673ffffffffffffffffffffffffffffffffffffffff16815260200190815260200160002060008881526020019081526020016000208281548110611d61577f4e487b7100000000000000000000000000000000000000000000000000000000600052603260045260246000fd5b90600052602060002001604051611d7891906130bf565b60405180910390201415611e67576040518060400160405280600381526020017f6e616e0000000000000000000000000000000000000000000000000000000000815250600660003373ffffffffffffffffffffffffffffffffffffffff1673ffffffffffffffffffffffffffffffffffffffff16815260200190815260200160002060008881526020019081526020016000208281548110611e44577f4e487b7100000000000000000000000000000000000000000000000000000000600052603260045260246000fd5b906000526020600020019080519060200190611e619291906126da565b50611e7a565b8080611e7290613730565b915050611c66565b5060005b6005600087815260200190815260200160002080549050811015611ff5578484604051611eac9291906130a6565b6040518091039020600560008881526020019081526020016000208281548110611eff577f4e487b7100000000000000000000000000000000000000000000000000000000600052603260045260246000fd5b90600052602060002001604051611f1691906130bf565b60405180910390201415611fe2576040518060400160405280600381526020017f6e616e0000000000000000000000000000000000000000000000000000000000815250600560008881526020019081526020016000208281548110611fa5577f4e487b7100000000000000000000000000000000000000000000000000000000600052603260045260246000fd5b906000526020600020019080519060200190611fc29291906126da565b50816005016000815480929190611fd8906136a3565b9190505550611ff5565b8080611fed90613730565b915050611e7e565b50612265565b8060030160009054906101000a900473ffffffffffffffffffffffffffffffffffffffff1673ffffffffffffffffffffffffffffffffffffffff163373ffffffffffffffffffffffffffffffffffffffff1614806120a4575060008054906101000a900473ffffffffffffffffffffffffffffffffffffffff1673ffffffffffffffffffffffffffffffffffffffff163373ffffffffffffffffffffffffffffffffffffffff16145b156122295760005b60056000878152602001908152602001600020805490508110156122235784846040516120da9291906130a6565b604051809103902060056000888152602001908152602001600020828154811061212d577f4e487b7100000000000000000000000000000000000000000000000000000000600052603260045260246000fd5b9060005260206000200160405161214491906130bf565b60405180910390201415612210576040518060400160405280600381526020017f6e616e00000000000000000000000000000000000000000000000000000000008152506005600088815260200190815260200160002082815481106121d3577f4e487b7100000000000000000000000000000000000000000000000000000000600052603260045260246000fd5b9060005260206000200190805190602001906121f09291906126da565b50816005016000815480929190612206906136a3565b9190505550612223565b808061221b90613730565b9150506120ac565b50612264565b6040517f08c379a000000000000000000000000000000000000000000000000000000000815260040161225b9061330b565b60405180910390fd5b5b3373ffffffffffffffffffffffffffffffffffffffff16857f908d57966935c906485135ddaf8c4c01c86397258ce7894997b63ec9fd388d608686600260008b815260200190815260200160002060030160009054906101000a900473ffffffffffffffffffffffffffffffffffffffff16600260008c81526020019081526020016000206002016040516122fd94939291906131a0565b60405180910390a35050505050565b6003602052816000526040600020818154811061232857600080fd5b906000526020600020016000915091509054906101000a900473ffffffffffffffffffffffffffffffffffffffff1681565b606060056000838152602001908152602001600020805480602002602001604051908101604052809291908181526020016000905b8282101561243b5783829060005260206000200180546123ae906136cd565b80601f01602080910402602001604051908101604052809291908181526020018280546123da906136cd565b80156124275780601f106123fc57610100808354040283529160200191612427565b820191906000526020600020905b81548152906001019060200180831161240a57829003601f168201915b50505050508152602001906001019061238f565b505050509050919050565b600081600001549050919050565b6124ec828260405160240161246a929190613244565b6040516020818303038152906040527f9710a9d0000000000000000000000000000000000000000000000000000000007bffffffffffffffffffffffffffffffffffffffffffffffffffffffff19166020820180517bffffffffffffffffffffffffffffffffffffffffffffffffffffffff838183161783525050505061259f565b5050565b612586816040516024016125049190613222565b6040516020818303038152906040527f41304fac000000000000000000000000000000000000000000000000000000007bffffffffffffffffffffffffffffffffffffffffffffffffffffffff19166020820180517bffffffffffffffffffffffffffffffffffffffffffffffffffffffff838183161783525050505061259f565b50565b6001816000016000828254019250508190555050565b60008151905060006a636f6e736f6c652e6c6f679050602083016000808483855afa5050505050565b8280546125d4906136cd565b90600052602060002090601f0160209004810192826125f6576000855561263d565b82601f1061260f57803560ff191683800117855561263d565b8280016001018555821561263d579182015b8281111561263c578235825591602001919060010190612621565b5b50905061264a9190612760565b5090565b50805461265a906136cd565b6000825580601f1061266c575061268b565b601f01602090049060005260206000209081019061268a9190612760565b5b50565b6040518060c00160405280600081526020016060815260200160608152602001600073ffffffffffffffffffffffffffffffffffffffff16815260200160008152602001600081525090565b8280546126e6906136cd565b90600052602060002090601f016020900481019282612708576000855561274f565b82601f1061272157805160ff191683800117855561274f565b8280016001018555821561274f579182015b8281111561274e578251825591602001919060010190612733565b5b50905061275c9190612760565b5090565b5b80821115612779576000816000905550600101612761565b5090565b600061279061278b8461347a565b613455565b9050828152602081018484840111156127a857600080fd5b6127b3848285613661565b509392505050565b6000813590506127ca81613a20565b92915050565b6000813590506127df81613a37565b92915050565b60008083601f8401126127f757600080fd5b8235905067ffffffffffffffff81111561281057600080fd5b60208301915083600182028301111561282857600080fd5b9250929050565b600082601f83011261284057600080fd5b813561285084826020860161277d565b91505092915050565b60008135905061286881613a4e565b92915050565b6000806040838503121561288157600080fd5b600061288f858286016127bb565b92505060206128a085828601612859565b9150509250929050565b6000806000606084860312156128bf57600080fd5b60006128cd868287016127bb565b93505060206128de86828701612859565b92505060406128ef86828701612859565b9150509250925092565b6000806000806040858703121561290f57600080fd5b600085013567ffffffffffffffff81111561292957600080fd5b612935878288016127e5565b9450945050602085013567ffffffffffffffff81111561295457600080fd5b612960878288016127e5565b925092505092959194509250565b60006020828403121561298057600080fd5b600061298e84828501612859565b91505092915050565b600080600080600080600060a0888a0312156129b257600080fd5b60006129c08a828b01612859565b97505060206129d18a828b016127d0565b96505060406129e28a828b016127d0565b955050606088013567ffffffffffffffff8111156129ff57600080fd5b612a0b8a828b016127e5565b9450945050608088013567ffffffffffffffff811115612a2a57600080fd5b612a368a828b016127e5565b925092505092959891949750929550565b600080600060408486031215612a5c57600080fd5b6000612a6a86828701612859565b935050602084013567ffffffffffffffff811115612a8757600080fd5b612a93868287016127e5565b92509250509250925092565b60008060408385031215612ab257600080fd5b6000612ac085828601612859565b925050602083013567ffffffffffffffff811115612add57600080fd5b612ae98582860161282f565b9150509250929050565b60008060408385031215612b0657600080fd5b6000612b1485828601612859565b9250506020612b2585828601612859565b9150509250929050565b6000612b3b8383612b6f565b60208301905092915050565b6000612b538383612dcb565b905092915050565b6000612b678383612ff8565b905092915050565b612b7881613619565b82525050565b612b8781613619565b82525050565b6000612b9882613505565b612ba28185613558565b9350612bad836134ab565b8060005b83811015612bde578151612bc58882612b2f565b9750612bd083613531565b925050600181019050612bb1565b5085935050505092915050565b6000612bf682613510565b612c008185613569565b935083602082028501612c12856134bb565b8060005b85811015612c4e5784840389528151612c2f8582612b47565b9450612c3a8361353e565b925060208a01995050600181019050612c16565b50829750879550505050505092915050565b6000612c6b8261351b565b612c75818561357a565b935083602082028501612c87856134cb565b8060005b85811015612cc35784840389528151612ca48582612b5b565b9450612caf8361354b565b925060208a01995050600181019050612c8b565b50829750879550505050505092915050565b6000612ce1838561358b565b9350612cee838584613661565b82840190509392505050565b60008154612d07816136cd565b612d11818661358b565b94506001821660008114612d2c5760018114612d3d57612d70565b60ff19831686528186019350612d70565b612d46856134db565b60005b83811015612d6857815481890152600182019150602081019050612d49565b838801955050505b50505092915050565b6000612d8583856135a7565b9350612d92838584613661565b612d9b83613806565b840190509392505050565b6000612db283856135b8565b9350612dbf838584613661565b82840190509392505050565b6000612dd682613526565b612de08185613596565b9350612df0818560208601613670565b612df981613806565b840191505092915050565b6000612e0f82613526565b612e1981856135a7565b9350612e29818560208601613670565b612e3281613806565b840191505092915050565b60008154612e4a816136cd565b612e5481866135a7565b94506001821660008114612e6f5760018114612e8157612eb4565b60ff1983168652602086019350612eb4565b612e8a856134f0565b60005b83811015612eac57815481890152600182019150602081019050612e8d565b808801955050505b50505092915050565b6000612eca6022836135a7565b9150612ed582613817565b604082019050919050565b6000612eed6023836135a7565b9150612ef882613866565b604082019050919050565b6000612f10600f836135a7565b9150612f1b826138b5565b602082019050919050565b6000612f33601e836135a7565b9150612f3e826138de565b602082019050919050565b6000612f566038836135a7565b9150612f6182613907565b604082019050919050565b6000612f796020836135a7565b9150612f8482613956565b602082019050919050565b6000612f9c601f836135a7565b9150612fa78261397f565b602082019050919050565b6000612fbf6028836135a7565b9150612fca826139a8565b604082019050919050565b6000612fe2600f836135a7565b9150612fed826139f7565b602082019050919050565b600060c0830160008301516130106000860182613088565b50602083015184820360208601526130288282612dcb565b915050604083015184820360408601526130428282612dcb565b91505060608301516130576060860182612b6f565b50608083015161306a6080860182613088565b5060a083015161307d60a0860182613088565b508091505092915050565b61309181613657565b82525050565b6130a081613657565b82525050565b60006130b3828486612cd5565b91508190509392505050565b60006130cb8284612cfa565b915081905092915050565b60006130e3828486612da6565b91508190509392505050565b60006020820190506131046000830184612b7e565b92915050565b600060408201905061311f6000830185612b7e565b81810360208301526131318184612e3d565b90509392505050565b600060208201905081810360008301526131548184612b8d565b905092915050565b600060208201905081810360008301526131768184612beb565b905092915050565b600060208201905081810360008301526131988184612c60565b905092915050565b600060608201905081810360008301526131bb818688612d79565b90506131ca6020830185612b7e565b81810360408301526131dc8184612e3d565b905095945050505050565b60006040820190508181036000830152613202818688612d79565b90508181036020830152613217818486612d79565b905095945050505050565b6000602082019050818103600083015261323c8184612e04565b905092915050565b6000604082019050818103600083015261325e8185612e04565b905061326d6020830184613097565b9392505050565b6000604082019050818103600083015261328e8185612e3d565b905081810360208301526132a28184612e3d565b90509392505050565b600060208201905081810360008301526132c481612ebd565b9050919050565b600060208201905081810360008301526132e481612ee0565b9050919050565b6000602082019050818103600083015261330481612f03565b9050919050565b6000602082019050818103600083015261332481612f26565b9050919050565b6000602082019050818103600083015261334481612f49565b9050919050565b6000602082019050818103600083015261336481612f6c565b9050919050565b6000602082019050818103600083015261338481612f8f565b9050919050565b600060208201905081810360008301526133a481612fb2565b9050919050565b600060208201905081810360008301526133c481612fd5565b9050919050565b60006020820190506133e06000830184613097565b92915050565b600060c0820190506133fb6000830189613097565b818103602083015261340d8188612e04565b905081810360408301526134218187612e04565b90506134306060830186612b7e565b61343d6080830185613097565b61344a60a0830184613097565b979650505050505050565b600061345f613470565b905061346b82826136ff565b919050565b6000604051905090565b600067ffffffffffffffff821115613495576134946137d7565b5b61349e82613806565b9050602081019050919050565b6000819050602082019050919050565b6000819050602082019050919050565b6000819050602082019050919050565b60008190508160005260206000209050919050565b60008190508160005260206000209050919050565b600081519050919050565b600081519050919050565b600081519050919050565b600081519050919050565b6000602082019050919050565b6000602082019050919050565b6000602082019050919050565b600082825260208201905092915050565b600082825260208201905092915050565b600082825260208201905092915050565b600081905092915050565b600082825260208201905092915050565b600082825260208201905092915050565b600081905092915050565b60006135ce82613657565b91506135d983613657565b9250827fffffffffffffffffffffffffffffffffffffffffffffffffffffffffffffffff0382111561360e5761360d613779565b5b828201905092915050565b600061362482613637565b9050919050565b60008115159050919050565b600073ffffffffffffffffffffffffffffffffffffffff82169050919050565b6000819050919050565b82818337600083830152505050565b60005b8381101561368e578082015181840152602081019050613673565b8381111561369d576000848401525b50505050565b60006136ae82613657565b915060008214156136c2576136c1613779565b5b600182039050919050565b600060028204905060018216806136e557607f821691505b602082108114156136f9576136f86137a8565b5b50919050565b61370882613806565b810181811067ffffffffffffffff82111715613727576137266137d7565b5b80604052505050565b600061373b82613657565b91507fffffffffffffffffffffffffffffffffffffffffffffffffffffffffffffffff82141561376e5761376d613779565b5b600182019050919050565b7f4e487b7100000000000000000000000000000000000000000000000000000000600052601160045260246000fd5b7f4e487b7100000000000000000000000000000000000000000000000000000000600052602260045260246000fd5b7f4e487b7100000000000000000000000000000000000000000000000000000000600052604160045260246000fd5b6000601f19601f8301169050919050565b7f506f73742063616e6e6f7420626520736176656420776974686f757420696d6160008201527f6765000000000000000000000000000000000000000000000000000000000000602082015250565b7f4f6e6c7920617574686f72206f66207468697320706f73742063616e2064656c60008201527f6574650000000000000000000000000000000000000000000000000000000000602082015250565b7f496e76616c696420706f73742069640000000000000000000000000000000000600082015250565b7f596f752063616e6e6f742064656c657465207468697320636f6d6d656e740000600082015250565b7f4f6e6c7920617574686f72206f66207468697320706f7374206f72206f776e6560008201527f72206f6620636f6e74726163742063616e2064656c6574650000000000000000602082015250565b7f596f75206861766520616c7265616479206c696b6564207468697320706f7374600082015250565b7f596f7520686176656e2774206c696b6564207468697320706f73742079657400600082015250565b7f506f73742063616e6e6f7420626520736176656420776974686f75742064657360008201527f6372697074696f6e000000000000000000000000000000000000000000000000602082015250565b7f4e6f7468696e6720746f20706f73740000000000000000000000000000000000600082015250565b613a2981613619565b8114613a3457600080fd5b50565b613a408161362b565b8114613a4b57600080fd5b50565b613a5781613657565b8114613a6257600080fd5b5056fea26469706673582212206180bc1b918e5be2eb044735bd16079330e8e8b4214275335cf1bf61d703a56464736f6c63430008040033",
  "linkReferences": {},
  "deployedLinkReferences": {}
}